:100000000C9434000C9451000C9451000C94510049
:100010000C9451000C9451000C9451000C9451001C
:100020000C9451000C9451000C9451000C94A404B5
:100030000C9451000C9451000C9451000C945100FC
:100040000C9451000C946D050C9451000C945100CB
:100050000C9451000C9451000C9451000C945100DC
:100060000C941E030C94510011241FBECFEFD8E056
:10007000DEBFCDBF11E0A0E0B1E0EEE5F3E102C0EC
:1000800005900D92A032B107D9F721E0A0E2B1E0CE
:1000900001C01D92A33AB207E1F70E947E050C94BD
:1000A0005C090C940000CF93DF930F92CDB7DEB7BD
:1000B000898399818DEC989F812D11248695869551
:1000C0008695882F90E082959295907F9827807FE3
:1000D0009827382F29818DEC289F812D1124982F66
:1000E000969596959695892F880F880F890F880F7A
:1000F000922F981B892F832B0F90DF91CF9108951A
:10010000CF93DF930F92CDB7DEB789838981982F84
:1001100092959F70892F880F880F890F880F982FCD
:1001200089818F70890F0F90DF91CF910895CF93C0
:10013000DF93CDB7DEB790915C0180916201981793
:10014000F9F490915B01809161019817C9F4909145
:100150005A0180916001981799F49091590180910A
:100160005F01981769F49091630180915D01981780
:1001700039F480915E01882319F081E090E002C09B
:1001800080E090E0DF91CF910895CF93DF93CDB7DA
:10019000DEB789E290E0FC0180818823A4F08091A1
:1001A0002B0190912C01A0912D01B0912E0101966F
:1001B000A11DB11D80932B0190932C01A0932D01C3
:1001C000B0932E0119C089E290E0FC018081882360
:1001D0009CF480912F0190913001A0913101B09158
:1001E00032010196A11DB11D80932F019093300122
:1001F000A0933101B093320180912B0190912C0199
:10020000A0912D01B0912E010297A105B105F8F042
:1002100081E080932A0110922B0110922C01109200
:100220002D0110922E018091330190913401A09103
:100230003501B09136010196A11DB11D80933301A6
:1002400090933401A0933501B09336012BC0809177
:100250002F0190913001A0913101B09132010697A8
:10026000A105B105F8F080913701813039F0809116
:100270002A01813019F481E08093380110922A011B
:1002800010922F0110923001109231011092320120
:100290001092330110923401109235011092360100
:1002A000109237018091330190913401A091350172
:1002B000B09136018497A105B10528F081E08093C3
:1002C0003701109238010000DF91CF910895CF934C
:1002D000DF93CDB7DEB78FEF80930E018FEF809362
:1002E0000D018FEF80930B018FEF80930A018FEF49
:1002F000809308018FEF80930701809120019091F6
:1003000021010697C8F180912001909121010B975E
:1003100098F580915F01882F90E08B5E9E4FFC01E5
:100320008081882F90E0880F991F80930C01809125
:100330006001882F90E08B5E9E4FFC018081882FAA
:1003400090E0880F991F982F80916201892B8093EC
:10035000090180916101882F90E08B5E9E4FFC0126
:100360008081882F90E0880F991F982F80916201DB
:10037000892B8093060132C080915901882F90E02B
:100380008B5E9E4FFC018081882F90E0880F991F23
:1003900080930C0180915A01882F90E08B5E9E4FD4
:1003A000FC018081882F90E0880F991F982F809101
:1003B0005C01892B8093090180915B01882F90E07B
:1003C0008B5E9E4FFC018081882F90E0880F991FE3
:1003D000982F80915C01892B809306010000DF91AA
:1003E000CF910895CF93DF93CDB7DEB710923A0146
:1003F00010923B0110923C0110923D0186E490E086
:10040000FC0110820000DF91CF910895CF93DF931C
:10041000CDB7DEB784E490E0FC01208180E890E075
:100420002064FC01208381E890E0FC01208181E8C8
:1004300090E02960FC01208384E890E0FC011182B7
:10044000108288E890E024E438E4FC0131832083C2
:100450008FE690E022E0FC0120830000DF91CF9145
:100460000895CF93DF93CDB7DEB787E290E02FE01A
:10047000FC0120838AE290E021E6FC01208384E2F3
:1004800090E02DE2FC01208388E290E0FC012081D5
:1004900088E290E02E7FFC01208388E290E0FC015E
:1004A000208188E290E02D7FFC01208388E290E0AB
:1004B000FC01208188E290E02B7FFC01208388E210
:1004C00090E028E0FC0120838BE290E021E0FC0139
:1004D00020830000DF91CF910895CF93DF93CDB7B4
:1004E000DEB78CE490E020E5FC0120838DE490E011
:1004F00021E0FC01208385E290E0FC01208185E27F
:1005000090E02460FC0120830000DF91CF910895EA
:10051000CF93DF93CDB7DEB788EB90E0FC0120816D
:1005200088EB90E02C60FC01208329EB30E089EB24
:1005300090E0F9012081FC0120838CEB90E0FC012C
:1005400020818CEB90E02568FC0120830000DF9186
:10055000CF9108950F93CF93DF9300D000D000D0B8
:10056000CDB7DEB789836A835C834B832D830E838B
:10057000898180934B018A81809366018D81882FC8
:1005800090E09093100180930F018D81882361F496
:100590008E81809350011092510187E691E09093F3
:1005A00014018093130119C08D818130B1F48E81C3
:1005B00080934E0110924F018E81282F30E08B8165
:1005C0009C81A901BC0185E891E00E94530985E85E
:1005D00091E0909312018093110181E090E090935B
:1005E0004D0180934C018CEB90E0FC0120818CEB61
:1005F00090E0256AFC012083000026960FB6F8944F
:10060000DEBF0FBECDBFDF91CF910F910895CF9385
:10061000DF930F92CDB7DEB789838EE490E0298116
:10062000FC01208300008DE490E0FC0180818823A0
:10063000D4F700000F90DF91CF9108951F920F9291
:100640000FB60F9211242F933F934F935F938F9385
:100650009F93AF93BF93EF93FF93CF93DF930F924B
:10066000CDB7DEB789EB90E0FC018081887F89837C
:100670009091640181E08927809364018981882FAA
:1006800090E0092E000CAA0BBB0B0897A109B10939
:1006900081359105A105B10508F03EC1825A964FFA
:1006A000FC010C942A098BEB90E020914B01FC019A
:1006B000208382E090E090934D0180934C018CEB7D
:1006C00090E0FC0120818CEB90E02468FC01208309
:1006D00028C18BEB90E020914B01FC0120838CEB37
:1006E00090E0FC0120818CEB90E02068FC012083ED
:1006F00018C182E090E090934D0180934C018BEB08
:1007000090E020916601FC0120838CEB90E0FC01DD
:1007100080818F74282F20688CEB90E0FC0120836F
:1007200000C180910F0190911001892B89F4809173
:100730004B01816080934B018CEB90E0FC01808148
:100740008F74282F206A8CEB90E0FC012083E6C098
:1007500080910F0190911001019709F0DFC0809105
:100760004C0190914D01029741F590914F0180917C
:100770004E01981710F580911101909112019C0182
:100780002F5F3F4F30931201209311012BEB30E08C
:10079000FC018081F90180838CEB90E0FC01808179
:1007A0008F74282F20688CEB90E0FC0120838091CF
:1007B0004F018F5F80934F01B1C08CEB90E0FC0143
:1007C00080818F74282F20698CEB90E0FC012083BE
:1007D00010924D0110924C01A1C0809150018130C6
:1007E00061F48CEB90E0FC0180818F74282F2068ED
:1007F0008CEB90E0FC01208394C08CEB90E0FC013A
:1008000080818F70282F206C8CEB90E0FC0120837E
:1008100088C080915101282F30E080915001882FAD
:1008200090E002972817390714F52BEB30E0809100
:10083000130190911401AC014F5F5F4F509314016D
:1008400040931301F9012081FC0120838091510123
:100850008F5F809351018CEB90E0FC0180818F7061
:10086000282F206C8CEB90E0FC01208359C08091F4
:100870005101282F30E080915001882F90E002979D
:100880002817390709F04CC02BEB30E08091130199
:1008900090911401AC014F5F5F4F5093140140934E
:1008A0001301F9012081FC012083809151018F5FA8
:1008B000809351018CEB90E0FC0180818F70282F98
:1008C00020688CEB90E0FC0120832AC02BEB30E009
:1008D0008091130190911401AC014F5F5F4F5093D1
:1008E000140140931301F9012081FC0120838091C0
:1008F00051018F5F809351018CEB90E0FC0180816E
:100900008F74282F20698CEB90E0FC0120831092DB
:100910004D0110924C0105C0000003C0000001C051
:10092000000000000F90DF91CF91FF91EF91BF91F8
:10093000AF919F918F915F914F913F912F910F9028
:100940000FBE0F901F9018951F920F920FB60F9227
:1009500011242F933F938F939F93EF93FF93CF9304
:10096000DF93CDB7DEB780913E0190913F0181309A
:100970009105C1F1823091051CF4892B49F073C0B7
:100980008230910509F444C0039709F457C06BC045
:10099000809144018F5F80934401809144018431B0
:1009A00058F01092440180914201909143010196C8
:1009B000909343018093420188E890E026EE33E073
:1009C000FC013183208381E080934001109241013A
:1009D00080913E0190913F01019690933F01809359
:1009E0003E0141C088E890E023EF31E0FC01318313
:1009F000208381E0809340011092410180913E016B
:100A000090913F01019690933F0180933E012BC04E
:100A100088E890E023EF31E0FC013183208381E01E
:100A2000809340011092410180913E0190913F01DD
:100A3000019690933F0180933E0115C088E890E0B5
:100A400020E536E4FC0131832083109240011092AE
:100A5000410180913E0190913F01019690933F01A9
:100A600080933E0100000000DF91CF91FF91EF9154
:100A70009F918F913F912F910F900FBE0F901F90DC
:100A800018950F93CF93DF9300D000D00F92CDB77E
:100A9000DEB780E88B831C8280E48D83CE010396D1
:100AA00001E021E0AC0160E08EED0E94AA021A8212
:100AB000198205C089819A8101969A8389838981E7
:100AC0009A81C297BCF300000F900F900F900F9087
:100AD0000F90DF91CF910F9108951F920F920FB653
:100AE0000F921124CF93DF93CDB7DEB70000DF91D3
:100AF000CF910F900FBE0F901F901895CF92DF925D
:100B0000EF92FF920F93CF93DF9300D000D000D0ED
:100B1000CDB7DEB79C838B837E836D830E943102C9
:100B20000E946D020E9488020E94060278948091C1
:100B30004001882309F455C080914101882309F0C0
:100B400050C080913E0190913F0104970CF049C044
:100B500088E290E0FC01208188E290E0287FFC019F
:100B6000208380913E0190913F0101978A5F9E4FC3
:100B7000FC0180810E94070388E290E0FC01208153
:100B800088E290E02260FC01208380913E019091F8
:100B90003F010197875F9E4FFC0180810E94070300
:100BA00088E290E0FC01208188E290E02460FC0172
:100BB000208380913E0190913F010197845F9E4F79
:100BC000FC0180810E94070388E290E0FC01208103
:100BD00088E290E02160FC01208381E08093410164
:100BE00024C380914001882309F018C380914101FA
:100BF000882309F013C380913E0190913F0104972F
:100C00000CF40CC388E290E0FC01208188E290E0C3
:100C1000287FFC01208380E00E94070388E290E0A7
:100C2000FC01208188E290E02260FC01208380E0CA
:100C30000E94070388E290E0FC01208188E290E0B6
:100C40002460FC01208380E00E94070388E290E09A
:100C5000FC01208188E290E02160FC01208381E09A
:100C60008093410180913E0190913F01049709F0EA
:100C7000D5C210923F0110923E0180914C0190919B
:100C80004D01029709F4CAC280916501882331F4AD
:100C90000E94410581E08093650149CF0E94670170
:100CA0000E94C5008091200190912101863091051C
:100CB00020F4892B09F0D0C008C08B30910508F4CE
:100CC0008DC10B9709F458C2B0C207E020E040E0A4
:100CD00050E060E08EED0E94AA02000080914C017D
:100CE00090914D01892BD1F787E0E7E6F1E0A2E58D
:100CF000B1E001900D928A95E1F7809153018F70D8
:100D00008093590180915301882F90E095958795A4
:100D100095958795959587959595879587708093F7
:100D20005A01809154018F7080935B01809154012E
:100D3000817080935C0180915401817080935D018A
:100D400085E290E0FC01208185E290E02E7FFC01AD
:100D5000208385E290E0FC01308120915D0185E2F5
:100D600090E0232BFC01208380913701813081F4B6
:100D700081E090E09093210180932001109237014F
:100D80001092330110923401109235011092360105
:100D900080914201909143019093460180934501D7
:100DA00010924801109247010E949700882371F029
:100DB00081E090E0909301018093000180914501D2
:100DC00090914601909348018093470180910001E2
:100DD000909101010197B1F52091450130914601B3
:100DE0008091470190914801A901481B590BCA0104
:100DF000853F914038F19091490181E089278093A6
:100E000049018BE290E0FC018081282F809149010B
:100E1000882F90E0F82EF694F694F694E82EEE0CD7
:100E2000EE0CEE0CEE0CEE0C8E2D282B8BE290E0EF
:100E3000FC012083809145019091460190934801E7
:100E40008093470180913801813009F0E9C1109207
:100E5000010110920001E4C1809137018130D9F580
:100E600080913901882349F48BE090E0909321012F
:100E70008093200110925E01D5C180912001909154
:100E80002101AC014F5F5F4F9A01ABEABAEA0E94C1
:100E900030099C01369527953695279536952795E7
:100EA000C901880F991F820F931F880F991F880F00
:100EB000991F9A01281B390B30932101209320019F
:100EC00010923701109233011092340110923501C3
:100ED00010923601A7C180913801813009F0A2C17A
:100EE0008091200190912101019759F4809159013D
:100EF000882F90E001962AE030E0B9010E9416099F
:100F000002C08091590180935901809120019091F4
:100F10002101029759F480915A01882F90E001969F
:100F200026E030E0B9010E94160902C080915A0102
:100F300080935A018091200190912101039759F4E7
:100F400080915B01882F90E001962AE030E0B901A2
:100F50000E94160902C080915B0180935B01809121
:100F6000200190912101049719F080915C0101C04A
:100F700080E080935C018091200190912101059790
:100F800029F490915D0181E0892702C080915D0183
:100F900080935D011092380181E0809339011092B5
:100FA00037011092330110923401109235011092E2
:100FB000360185E290E0FC01208185E290E02E7F01
:100FC000FC01208385E290E0FC01308120915D01ED
:100FD00085E290E0232BFC01208324C1809137011E
:100FE000813009F046C080913901882349F48BE0B3
:100FF00090E0909321018093200110925E0114C132
:101000008091200190912101AC014F5F5F4F9A01C7
:10101000ABEABAEA0E9430099C01369527953695CD
:10102000279536952795C901880F991F820F931F21
:10103000880F991F880F991F9A01281B390B30932D
:101040002101209320011092370110923301109258
:101050003401109235011092360180912001909157
:10106000210121E00A9709F020E0822F80935E01A0
:10107000DBC080913801813009F0D6C08091200119
:1010800090912101069759F480915F01882F90E09B
:1010900001962AE030E0B9010E94160902C0809151
:1010A0005F0180935F01809120019091210107975A
:1010B00059F480916001882F90E0019626E030E09D
:1010C000B9010E94160902C08091600180936001FD
:1010D0008091200190912101089759F4809161013C
:1010E000882F90E001962AE030E0B9010E941609AD
:1010F00002C08091610180936101809120019091F3
:101100002101099719F08091620101C080E080936C
:10111000620180912001909121010A9729F4909118
:10112000630181E0892702C080916301809363019C
:101130001092380181E080933901109237011092AA
:10114000330110923401109235011092360185E27C
:1011500090E0FC01208185E290E02E7FFC0120835D
:1011600085E290E0FC0130812091630185E290E00E
:10117000232BFC01208358C08091520180788093FA
:10118000520180915A01882F90E082959295907F2C
:101190009827807F9827807790915901892B809399
:1011A000530180915D01882F90E0D82ED694D6947B
:1011B000D694C82ECC0CCC0CCC0CCC0CCC0C8C2DDE
:1011C000282F207280915C01882F90E08295929563
:1011D000907F9827807F98278071922F982B8091FD
:1011E0005B018F70892B8093540103E021E042E57D
:1011F00051E060E08EED0E94AA021A82198205C0B9
:1012000089819A8101969A83898389819A81C2977B
:10121000BCF3109221011092200107C0000087CC7E
:10122000000085CC000083CC000081CC97FB072E0A
:1012300016F4009407D077FD09D00E943F0907FCFF
:1012400005D03EF4909581959F4F089570956195D6
:101250007F4F0895EE0FFF1F0590F491E02D099444
:10126000A29FB001B39FC001A39F700D811D1124E7
:10127000911DB29F700D811D1124911D0895AA1B0F
:10128000BB1B51E107C0AA1FBB1FA617B70710F071
:10129000A61BB70B881F991F5A95A9F780959095A3
:1012A000BC01CD010895FB01DC0102C001900D924B
:1012B00041505040D8F70895F894FFCF53038C0461
:1012C0008C048C048C048C048C048C0469038C04C2
:1012D0008C048C048C048C048C048C0479038C04A2
:1012E0008C048C048C048C048C048C048C048C047E
:1012F0008C048C048C048C048C048C0491038C046A
:101300008C048C048C048C048C048C048C048C045D
:101310008C048C048C048C048C048C048C048C044D
:101320008C048C048C048C048C048C04ED038C04DD
:101330008C048C048C048C048C048C048C048C042D
:101340008C048C048C048C048C048C0409048C04A0
:0E1350008C048C048C048C048C048C046604C5
:10135E000100E8030000FFFFFFFFFF00FF00000198
:10136E0000850167017E306D79335B5F707F73009E
:00000001FF
